{
  "_format": "hh-sol-artifact-1",
  "contractName": "EIP712Example",
  "sourceName": "contracts/EIP712Example.sol",
  "abi": [
    {
      "inputs": [],
      "stateMutability": "nonpayable",
      "type": "constructor"
    },
    {
      "inputs": [],
      "name": "InvalidShortString",
      "type": "error"
    },
    {
      "inputs": [
        {
          "internalType": "string",
          "name": "str",
          "type": "string"
        }
      ],
      "name": "StringTooLong",
      "type": "error"
    },
    {
      "anonymous": false,
      "inputs": [
        {
          "indexed": true,
          "internalType": "address",
          "name": "owner",
          "type": "address"
        },
        {
          "indexed": true,
          "internalType": "address",
          "name": "approved",
          "type": "address"
        },
        {
          "indexed": true,
          "internalType": "uint256",
          "name": "tokenId",
          "type": "uint256"
        }
      ],
      "name": "Approval",
      "type": "event"
    },
    {
      "anonymous": false,
      "inputs": [
        {
          "indexed": true,
          "internalType": "address",
          "name": "owner",
          "type": "address"
        },
        {
          "indexed": true,
          "internalType": "address",
          "name": "operator",
          "type": "address"
        },
        {
          "indexed": false,
          "internalType": "bool",
          "name": "approved",
          "type": "bool"
        }
      ],
      "name": "ApprovalForAll",
      "type": "event"
    },
    {
      "anonymous": false,
      "inputs": [],
      "name": "EIP712DomainChanged",
      "type": "event"
    },
    {
      "anonymous": false,
      "inputs": [
        {
          "indexed": true,
          "internalType": "address",
          "name": "previousOwner",
          "type": "address"
        },
        {
          "indexed": true,
          "internalType": "address",
          "name": "newOwner",
          "type": "address"
        }
      ],
      "name": "OwnershipTransferred",
      "type": "event"
    },
    {
      "anonymous": false,
      "inputs": [
        {
          "indexed": true,
          "internalType": "address",
          "name": "from",
          "type": "address"
        },
        {
          "indexed": true,
          "internalType": "address",
          "name": "to",
          "type": "address"
        },
        {
          "indexed": true,
          "internalType": "uint256",
          "name": "tokenId",
          "type": "uint256"
        }
      ],
      "name": "Transfer",
      "type": "event"
    },
    {
      "inputs": [
        {
          "internalType": "address",
          "name": "signer",
          "type": "address"
        }
      ],
      "name": "addSigner",
      "outputs": [],
      "stateMutability": "nonpayable",
      "type": "function"
    },
    {
      "inputs": [
        {
          "internalType": "address",
          "name": "to",
          "type": "address"
        },
        {
          "internalType": "uint256",
          "name": "tokenId",
          "type": "uint256"
        }
      ],
      "name": "approve",
      "outputs": [],
      "stateMutability": "nonpayable",
      "type": "function"
    },
    {
      "inputs": [
        {
          "internalType": "address",
          "name": "",
          "type": "address"
        }
      ],
      "name": "authorizedSigners",
      "outputs": [
        {
          "internalType": "bool",
          "name": "",
          "type": "bool"
        }
      ],
      "stateMutability": "view",
      "type": "function"
    },
    {
      "inputs": [
        {
          "internalType": "address",
          "name": "owner",
          "type": "address"
        }
      ],
      "name": "balanceOf",
      "outputs": [
        {
          "internalType": "uint256",
          "name": "",
          "type": "uint256"
        }
      ],
      "stateMutability": "view",
      "type": "function"
    },
    {
      "inputs": [],
      "name": "eip712Domain",
      "outputs": [
        {
          "internalType": "bytes1",
          "name": "fields",
          "type": "bytes1"
        },
        {
          "internalType": "string",
          "name": "name",
          "type": "string"
        },
        {
          "internalType": "string",
          "name": "version",
          "type": "string"
        },
        {
          "internalType": "uint256",
          "name": "chainId",
          "type": "uint256"
        },
        {
          "internalType": "address",
          "name": "verifyingContract",
          "type": "address"
        },
        {
          "internalType": "bytes32",
          "name": "salt",
          "type": "bytes32"
        },
        {
          "internalType": "uint256[]",
          "name": "extensions",
          "type": "uint256[]"
        }
      ],
      "stateMutability": "view",
      "type": "function"
    },
    {
      "inputs": [
        {
          "internalType": "uint256",
          "name": "tokenId",
          "type": "uint256"
        }
      ],
      "name": "getApproved",
      "outputs": [
        {
          "internalType": "address",
          "name": "",
          "type": "address"
        }
      ],
      "stateMutability": "view",
      "type": "function"
    },
    {
      "inputs": [
        {
          "internalType": "address",
          "name": "owner",
          "type": "address"
        },
        {
          "internalType": "address",
          "name": "operator",
          "type": "address"
        }
      ],
      "name": "isApprovedForAll",
      "outputs": [
        {
          "internalType": "bool",
          "name": "",
          "type": "bool"
        }
      ],
      "stateMutability": "view",
      "type": "function"
    },
    {
      "inputs": [
        {
          "components": [
            {
              "internalType": "address",
              "name": "to",
              "type": "address"
            },
            {
              "internalType": "uint256",
              "name": "tokenId",
              "type": "uint256"
            },
            {
              "internalType": "uint256",
              "name": "nonce",
              "type": "uint256"
            },
            {
              "internalType": "uint256",
              "name": "deadline",
              "type": "uint256"
            }
          ],
          "internalType": "struct EIP712Example.MintRequest",
          "name": "request",
          "type": "tuple"
        },
        {
          "internalType": "bytes",
          "name": "signature",
          "type": "bytes"
        }
      ],
      "name": "mintWithSignature",
      "outputs": [],
      "stateMutability": "nonpayable",
      "type": "function"
    },
    {
      "inputs": [],
      "name": "name",
      "outputs": [
        {
          "internalType": "string",
          "name": "",
          "type": "string"
        }
      ],
      "stateMutability": "view",
      "type": "function"
    },
    {
      "inputs": [],
      "name": "owner",
      "outputs": [
        {
          "internalType": "address",
          "name": "",
          "type": "address"
        }
      ],
      "stateMutability": "view",
      "type": "function"
    },
    {
      "inputs": [
        {
          "internalType": "uint256",
          "name": "tokenId",
          "type": "uint256"
        }
      ],
      "name": "ownerOf",
      "outputs": [
        {
          "internalType": "address",
          "name": "",
          "type": "address"
        }
      ],
      "stateMutability": "view",
      "type": "function"
    },
    {
      "inputs": [
        {
          "internalType": "address",
          "name": "signer",
          "type": "address"
        }
      ],
      "name": "removeSigner",
      "outputs": [],
      "stateMutability": "nonpayable",
      "type": "function"
    },
    {
      "inputs": [],
      "name": "renounceOwnership",
      "outputs": [],
      "stateMutability": "nonpayable",
      "type": "function"
    },
    {
      "inputs": [
        {
          "internalType": "address",
          "name": "from",
          "type": "address"
        },
        {
          "internalType": "address",
          "name": "to",
          "type": "address"
        },
        {
          "internalType": "uint256",
          "name": "tokenId",
          "type": "uint256"
        }
      ],
      "name": "safeTransferFrom",
      "outputs": [],
      "stateMutability": "nonpayable",
      "type": "function"
    },
    {
      "inputs": [
        {
          "internalType": "address",
          "name": "from",
          "type": "address"
        },
        {
          "internalType": "address",
          "name": "to",
          "type": "address"
        },
        {
          "internalType": "uint256",
          "name": "tokenId",
          "type": "uint256"
        },
        {
          "internalType": "bytes",
          "name": "data",
          "type": "bytes"
        }
      ],
      "name": "safeTransferFrom",
      "outputs": [],
      "stateMutability": "nonpayable",
      "type": "function"
    },
    {
      "inputs": [
        {
          "internalType": "address",
          "name": "operator",
          "type": "address"
        },
        {
          "internalType": "bool",
          "name": "approved",
          "type": "bool"
        }
      ],
      "name": "setApprovalForAll",
      "outputs": [],
      "stateMutability": "nonpayable",
      "type": "function"
    },
    {
      "inputs": [
        {
          "internalType": "bytes4",
          "name": "interfaceId",
          "type": "bytes4"
        }
      ],
      "name": "supportsInterface",
      "outputs": [
        {
          "internalType": "bool",
          "name": "",
          "type": "bool"
        }
      ],
      "stateMutability": "view",
      "type": "function"
    },
    {
      "inputs": [],
      "name": "symbol",
      "outputs": [
        {
          "internalType": "string",
          "name": "",
          "type": "string"
        }
      ],
      "stateMutability": "view",
      "type": "function"
    },
    {
      "inputs": [
        {
          "internalType": "uint256",
          "name": "tokenId",
          "type": "uint256"
        }
      ],
      "name": "tokenURI",
      "outputs": [
        {
          "internalType": "string",
          "name": "",
          "type": "string"
        }
      ],
      "stateMutability": "view",
      "type": "function"
    },
    {
      "inputs": [
        {
          "internalType": "address",
          "name": "from",
          "type": "address"
        },
        {
          "internalType": "address",
          "name": "to",
          "type": "address"
        },
        {
          "internalType": "uint256",
          "name": "tokenId",
          "type": "uint256"
        }
      ],
      "name": "transferFrom",
      "outputs": [],
      "stateMutability": "nonpayable",
      "type": "function"
    },
    {
      "inputs": [
        {
          "internalType": "address",
          "name": "newOwner",
          "type": "address"
        }
      ],
      "name": "transferOwnership",
      "outputs": [],
      "stateMutability": "nonpayable",
      "type": "function"
    },
    {
      "inputs": [
        {
          "internalType": "uint256",
          "name": "",
          "type": "uint256"
        }
      ],
      "name": "usedNonces",
      "outputs": [
        {
          "internalType": "bool",
          "name": "",
          "type": "bool"
        }
      ],
      "stateMutability": "view",
      "type": "function"
    }
  ],
  "bytecode": "0x6101606040523480156200001257600080fd5b506040518060400160405280600581526020017f4d794e46540000000000000000000000000000000000000000000000000000008152506040518060400160405280600581526020017f312e302e300000000000000000000000000000000000000000000000000000008152506040518060400160405280600581526020017f4d794e46540000000000000000000000000000000000000000000000000000008152506040518060400160405280600481526020017f4d4e4654000000000000000000000000000000000000000000000000000000008152508160009081620000fc91906200065b565b5080600190816200010e91906200065b565b50505062000127600683620001e760201b90919060201c565b610120818152505062000145600782620001e760201b90919060201c565b6101408181525050818051906020012060e08181525050808051906020012061010081815250504660a08181525050620001846200023f60201b60201c565b608081815250503073ffffffffffffffffffffffffffffffffffffffff1660c08173ffffffffffffffffffffffffffffffffffffffff16815250505050620001e1620001d56200029c60201b60201c565b620002a460201b60201c565b62000965565b60006020835110156200020d5762000205836200036a60201b60201c565b905062000239565b826200021f83620003d760201b60201c565b60000190816200023091906200065b565b5060ff60001b90505b92915050565b60007f8b73c3c69bb8fe3d512ecc4cf759cc79239f7b179b0ffacaa9a75d522b39400f60e05161010051463060405160200162000281959493929190620007b3565b60405160208183030381529060405280519060200120905090565b600033905090565b6000600860009054906101000a900473ffffffffffffffffffffffffffffffffffffffff16905081600860006101000a81548173ffffffffffffffffffffffffffffffffffffffff021916908373ffffffffffffffffffffffffffffffffffffffff1602179055508173ffffffffffffffffffffffffffffffffffffffff168173ffffffffffffffffffffffffffffffffffffffff167f8be0079c531659141344cd1fd0a4f28419497f9722a3daafe3b4186f6b6457e060405160405180910390a35050565b600080829050601f81511115620003ba57826040517f305a27a9000000000000000000000000000000000000000000000000000000008152600401620003b191906200089f565b60405180910390fd5b805181620003c890620008f5565b60001c1760001b915050919050565b6000819050919050565b600081519050919050565b7f4e487b7100000000000000000000000000000000000000000000000000000000600052604160045260246000fd5b7f4e487b7100000000000000000000000000000000000000000000000000000000600052602260045260246000fd5b600060028204905060018216806200046357607f821691505b6020821081036200047957620004786200041b565b5b50919050565b60008190508160005260206000209050919050565b60006020601f8301049050919050565b600082821b905092915050565b600060088302620004e37fffffffffffffffffffffffffffffffffffffffffffffffffffffffffffffffff82620004a4565b620004ef8683620004a4565b95508019841693508086168417925050509392505050565b6000819050919050565b6000819050919050565b60006200053c62000536620005308462000507565b62000511565b62000507565b9050919050565b6000819050919050565b62000558836200051b565b62000570620005678262000543565b848454620004b1565b825550505050565b600090565b6200058762000578565b620005948184846200054d565b505050565b5b81811015620005bc57620005b06000826200057d565b6001810190506200059a565b5050565b601f8211156200060b57620005d5816200047f565b620005e08462000494565b81016020851015620005f0578190505b62000608620005ff8562000494565b83018262000599565b50505b505050565b600082821c905092915050565b6000620006306000198460080262000610565b1980831691505092915050565b60006200064b83836200061d565b9150826002028217905092915050565b6200066682620003e1565b67ffffffffffffffff811115620006825762000681620003ec565b5b6200068e82546200044a565b6200069b828285620005c0565b600060209050601f831160018114620006d35760008415620006be578287015190505b620006ca85826200063d565b8655506200073a565b601f198416620006e3866200047f565b60005b828110156200070d57848901518255600182019150602085019450602081019050620006e6565b868310156200072d578489015162000729601f8916826200061d565b8355505b6001600288020188555050505b505050505050565b6000819050919050565b620007578162000742565b82525050565b620007688162000507565b82525050565b600073ffffffffffffffffffffffffffffffffffffffff82169050919050565b60006200079b826200076e565b9050919050565b620007ad816200078e565b82525050565b600060a082019050620007ca60008301886200074c565b620007d960208301876200074c565b620007e860408301866200074c565b620007f760608301856200075d565b620008066080830184620007a2565b9695505050505050565b600082825260208201905092915050565b60005b838110156200084157808201518184015260208101905062000824565b60008484015250505050565b6000601f19601f8301169050919050565b60006200086b82620003e1565b62000877818562000810565b93506200088981856020860162000821565b62000894816200084d565b840191505092915050565b60006020820190508181036000830152620008bb81846200085e565b905092915050565b600081519050919050565b6000819050602082019050919050565b6000620008ec825162000742565b80915050919050565b60006200090282620008c3565b826200090e84620008ce565b90506200091b81620008de565b925060208210156200095e57620009597fffffffffffffffffffffffffffffffffffffffffffffffffffffffffffffffff83602003600802620004a4565b831692505b5050919050565b60805160a05160c05160e051610100516101205161014051613998620009c06000396000610c0001526000610bcc0152600061247401526000612453015260006121e50152600061223b0152600061226401526139986000f3fe608060405234801561001057600080fd5b50600436106101425760003560e01c806370a08231116100b8578063a22cb4651161007c578063a22cb4651461037b578063b88d4fde14610397578063c87b56dd146103b3578063e985e9c5146103e3578063eb12d61e14610413578063f2fde38b1461042f57610142565b806370a08231146102e1578063715018a61461031157806384b0196e1461031b5780638da5cb5b1461033f57806395d89b411461035d57610142565b806323b872dd1161010a57806323b872dd146101fd57806342842e0e146102195780635d2b6a4e1461023557806360149076146102655780636352211e146102815780636717e41c146102b157610142565b806301ffc9a71461014757806306fdde0314610177578063081812fc14610195578063095ea7b3146101c55780630e316ab7146101e1575b600080fd5b610161600480360381019061015c9190612530565b61044b565b60405161016e9190612578565b60405180910390f35b61017f61052d565b60405161018c9190612623565b60405180910390f35b6101af60048036038101906101aa919061267b565b6105bf565b6040516101bc91906126e9565b60405180910390f35b6101df60048036038101906101da9190612730565b610605565b005b6101fb60048036038101906101f69190612770565b61071c565b005b6102176004803603810190610212919061279d565b61077f565b005b610233600480360381019061022e919061279d565b6107df565b005b61024f600480360381019061024a9190612770565b6107ff565b60405161025c9190612578565b60405180910390f35b61027f600480360381019061027a9190612949565b61081f565b005b61029b6004803603810190610296919061267b565b610a48565b6040516102a891906126e9565b60405180910390f35b6102cb60048036038101906102c6919061267b565b610ace565b6040516102d89190612578565b60405180910390f35b6102fb60048036038101906102f69190612770565b610aee565b60405161030891906129b4565b60405180910390f35b610319610ba5565b005b610323610bb9565b6040516103369796959493929190612ae1565b60405180910390f35b610347610cbb565b60405161035491906126e9565b60405180910390f35b610365610ce5565b6040516103729190612623565b60405180910390f35b61039560048036038101906103909190612b91565b610d77565b005b6103b160048036038101906103ac9190612bd1565b610d8d565b005b6103cd60048036038101906103c8919061267b565b610def565b6040516103da9190612623565b60405180910390f35b6103fd60048036038101906103f89190612c54565b610e57565b60405161040a9190612578565b60405180910390f35b61042d60048036038101906104289190612770565b610eeb565b005b61044960048036038101906104449190612770565b610f4e565b005b60007f80ac58cd000000000000000000000000000000000000000000000000000000007bffffffffffffffffffffffffffffffffffffffffffffffffffffffff1916827bffffffffffffffffffffffffffffffffffffffffffffffffffffffff1916148061051657507f5b5e139f000000000000000000000000000000000000000000000000000000007bffffffffffffffffffffffffffffffffffffffffffffffffffffffff1916827bffffffffffffffffffffffffffffffffffffffffffffffffffffffff1916145b80610526575061052582610fd1565b5b9050919050565b60606000805461053c90612cc3565b80601f016020809104026020016040519081016040528092919081815260200182805461056890612cc3565b80156105b55780601f1061058a576101008083540402835291602001916105b5565b820191906000526020600020905b81548152906001019060200180831161059857829003601f168201915b5050505050905090565b60006105ca8261103b565b6004600083815260200190815260200160002060009054906101000a900473ffffffffffffffffffffffffffffffffffffffff169050919050565b600061061082610a48565b90508073ffffffffffffffffffffffffffffffffffffffff168373ffffffffffffffffffffffffffffffffffffffff1603610680576040517f08c379a000000000000000000000000000000000000000000000000000000000815260040161067790612d66565b60405180910390fd5b8073ffffffffffffffffffffffffffffffffffffffff1661069f611086565b73ffffffffffffffffffffffffffffffffffffffff1614806106ce57506106cd816106c8611086565b610e57565b5b61070d576040517f08c379a000000000000000000000000000000000000000000000000000000000815260040161070490612df8565b60405180910390fd5b610717838361108e565b505050565b610724611147565b6000600a60008373ffffffffffffffffffffffffffffffffffffffff1673ffffffffffffffffffffffffffffffffffffffff16815260200190815260200160002060006101000a81548160ff02191690831515021790555050565b61079061078a611086565b826111c5565b6107cf576040517f08c379a00000000000000000000000000000000000000000000000000000000081526004016107c690612e8a565b60405180910390fd5b6107da83838361125a565b505050565b6107fa83838360405180602001604052806000815250610d8d565b505050565b600a6020528060005260406000206000915054906101000a900460ff1681565b8160600135421115610866576040517f08c379a000000000000000000000000000000000000000000000000000000000815260040161085d90612ef6565b60405180910390fd5b600960008360400135815260200190815260200160002060009054906101000a900460ff16156108cb576040517f08c379a00000000000000000000000000000000000000000000000000000000081526004016108c290612f62565b60405180910390fd5b60006108d683611553565b905060006108e482846115d1565b9050600a60008273ffffffffffffffffffffffffffffffffffffffff1673ffffffffffffffffffffffffffffffffffffffff16815260200190815260200160002060009054906101000a900460ff16610972576040517f08c379a000000000000000000000000000000000000000000000000000000000815260040161096990612fce565b60405180910390fd5b3373ffffffffffffffffffffffffffffffffffffffff1684600001602081019061099c9190612770565b73ffffffffffffffffffffffffffffffffffffffff16146109f2576040517f08c379a00000000000000000000000000000000000000000000000000000000081526004016109e99061303a565b60405180910390fd5b6001600960008660400135815260200190815260200160002060006101000a81548160ff021916908315150217905550610a42846000016020810190610a389190612770565b85602001356115f8565b50505050565b600080610a5483611815565b9050600073ffffffffffffffffffffffffffffffffffffffff168173ffffffffffffffffffffffffffffffffffffffff1603610ac5576040517f08c379a0000000000000000000000000000000000000000000000000000000008152600401610abc906130a6565b60405180910390fd5b80915050919050565b60096020528060005260406000206000915054906101000a900460ff1681565b60008073ffffffffffffffffffffffffffffffffffffffff168273ffffffffffffffffffffffffffffffffffffffff1603610b5e576040517f08c379a0000000000000000000000000000000000000000000000000000000008152600401610b5590613138565b60405180910390fd5b600360008373ffffffffffffffffffffffffffffffffffffffff1673ffffffffffffffffffffffffffffffffffffffff168152602001908152602001600020549050919050565b610bad611147565b610bb76000611852565b565b600060608060008060006060610bf960067f000000000000000000000000000000000000000000000000000000000000000061191890919063ffffffff16565b610c2d60077f000000000000000000000000000000000000000000000000000000000000000061191890919063ffffffff16565b46306000801b600067ffffffffffffffff811115610c4e57610c4d61281e565b5b604051908082528060200260200182016040528015610c7c5781602001602082028036833780820191505090505b507f0f00000000000000000000000000000000000000000000000000000000000000959493929190965096509650965096509650965090919293949596565b6000600860009054906101000a900473ffffffffffffffffffffffffffffffffffffffff16905090565b606060018054610cf490612cc3565b80601f0160208091040260200160405190810160405280929190818152602001828054610d2090612cc3565b8015610d6d5780601f10610d4257610100808354040283529160200191610d6d565b820191906000526020600020905b815481529060010190602001808311610d5057829003601f168201915b5050505050905090565b610d89610d82611086565b83836119c8565b5050565b610d9e610d98611086565b836111c5565b610ddd576040517f08c379a0000000000000000000000000000000000000000000000000000000008152600401610dd490612e8a565b60405180910390fd5b610de984848484611b34565b50505050565b6060610dfa8261103b565b6000610e04611b90565b90506000815111610e245760405180602001604052806000815250610e4f565b80610e2e84611ba7565b604051602001610e3f929190613194565b6040516020818303038152906040525b915050919050565b6000600560008473ffffffffffffffffffffffffffffffffffffffff1673ffffffffffffffffffffffffffffffffffffffff16815260200190815260200160002060008373ffffffffffffffffffffffffffffffffffffffff1673ffffffffffffffffffffffffffffffffffffffff16815260200190815260200160002060009054906101000a900460ff16905092915050565b610ef3611147565b6001600a60008373ffffffffffffffffffffffffffffffffffffffff1673ffffffffffffffffffffffffffffffffffffffff16815260200190815260200160002060006101000a81548160ff02191690831515021790555050565b610f56611147565b600073ffffffffffffffffffffffffffffffffffffffff168173ffffffffffffffffffffffffffffffffffffffff1603610fc5576040517f08c379a0000000000000000000000000000000000000000000000000000000008152600401610fbc9061322a565b60405180910390fd5b610fce81611852565b50565b60007f01ffc9a7000000000000000000000000000000000000000000000000000000007bffffffffffffffffffffffffffffffffffffffffffffffffffffffff1916827bffffffffffffffffffffffffffffffffffffffffffffffffffffffff1916149050919050565b61104481611c75565b611083576040517f08c379a000000000000000000000000000000000000000000000000000000000815260040161107a906130a6565b60405180910390fd5b50565b600033905090565b816004600083815260200190815260200160002060006101000a81548173ffffffffffffffffffffffffffffffffffffffff021916908373ffffffffffffffffffffffffffffffffffffffff160217905550808273ffffffffffffffffffffffffffffffffffffffff1661110183610a48565b73ffffffffffffffffffffffffffffffffffffffff167f8c5be1e5ebec7d5bd14f71427d1e84f3dd0314c0f7b2291e5b200ac8c7c3b92560405160405180910390a45050565b61114f611086565b73ffffffffffffffffffffffffffffffffffffffff1661116d610cbb565b73ffffffffffffffffffffffffffffffffffffffff16146111c3576040517f08c379a00000000000000000000000000000000000000000000000000000000081526004016111ba90613296565b60405180910390fd5b565b6000806111d183610a48565b90508073ffffffffffffffffffffffffffffffffffffffff168473ffffffffffffffffffffffffffffffffffffffff16148061121357506112128185610e57565b5b8061125157508373ffffffffffffffffffffffffffffffffffffffff16611239846105bf565b73ffffffffffffffffffffffffffffffffffffffff16145b91505092915050565b8273ffffffffffffffffffffffffffffffffffffffff1661127a82610a48565b73ffffffffffffffffffffffffffffffffffffffff16146112d0576040517f08c379a00000000000000000000000000000000000000000000000000000000081526004016112c790613328565b60405180910390fd5b600073ffffffffffffffffffffffffffffffffffffffff168273ffffffffffffffffffffffffffffffffffffffff160361133f576040517f08c379a0000000000000000000000000000000000000000000000000000000008152600401611336906133ba565b60405180910390fd5b61134c8383836001611cb6565b8273ffffffffffffffffffffffffffffffffffffffff1661136c82610a48565b73ffffffffffffffffffffffffffffffffffffffff16146113c2576040517f08c379a00000000000000000000000000000000000000000000000000000000081526004016113b990613328565b60405180910390fd5b6004600082815260200190815260200160002060006101000a81549073ffffffffffffffffffffffffffffffffffffffff02191690556001600360008573ffffffffffffffffffffffffffffffffffffffff1673ffffffffffffffffffffffffffffffffffffffff168152602001908152602001600020600082825403925050819055506001600360008473ffffffffffffffffffffffffffffffffffffffff1673ffffffffffffffffffffffffffffffffffffffff16815260200190815260200160002060008282540192505081905550816002600083815260200190815260200160002060006101000a81548173ffffffffffffffffffffffffffffffffffffffff021916908373ffffffffffffffffffffffffffffffffffffffff160217905550808273ffffffffffffffffffffffffffffffffffffffff168473ffffffffffffffffffffffffffffffffffffffff167fddf252ad1be2c89b69c2b068fc378daa952ba7f163c4a11628f55a4df523b3ef60405160405180910390a461154e8383836001611cbc565b505050565b60006115ca7f64ee95f031731f74370fb74e6b49278d891f795280d9df770b0c38fa129a4cff83600001602081019061158c9190612770565b8460200135856040013586606001356040516020016115af9594939291906133da565b60405160208183030381529060405280519060200120611cc2565b9050919050565b60008060006115e08585611cdc565b915091506115ed81611d2d565b819250505092915050565b600073ffffffffffffffffffffffffffffffffffffffff168273ffffffffffffffffffffffffffffffffffffffff1603611667576040517f08c379a000000000000000000000000000000000000000000000000000000000815260040161165e90613479565b60405180910390fd5b61167081611c75565b156116b0576040517f08c379a00000000000000000000000000000000000000000000000000000000081526004016116a7906134e5565b60405180910390fd5b6116be600083836001611cb6565b6116c781611c75565b15611707576040517f08c379a00000000000000000000000000000000000000000000000000000000081526004016116fe906134e5565b60405180910390fd5b6001600360008473ffffffffffffffffffffffffffffffffffffffff1673ffffffffffffffffffffffffffffffffffffffff16815260200190815260200160002060008282540192505081905550816002600083815260200190815260200160002060006101000a81548173ffffffffffffffffffffffffffffffffffffffff021916908373ffffffffffffffffffffffffffffffffffffffff160217905550808273ffffffffffffffffffffffffffffffffffffffff16600073ffffffffffffffffffffffffffffffffffffffff167fddf252ad1be2c89b69c2b068fc378daa952ba7f163c4a11628f55a4df523b3ef60405160405180910390a4611811600083836001611cbc565b5050565b60006002600083815260200190815260200160002060009054906101000a900473ffffffffffffffffffffffffffffffffffffffff169050919050565b6000600860009054906101000a900473ffffffffffffffffffffffffffffffffffffffff16905081600860006101000a81548173ffffffffffffffffffffffffffffffffffffffff021916908373ffffffffffffffffffffffffffffffffffffffff1602179055508173ffffffffffffffffffffffffffffffffffffffff168173ffffffffffffffffffffffffffffffffffffffff167f8be0079c531659141344cd1fd0a4f28419497f9722a3daafe3b4186f6b6457e060405160405180910390a35050565b606060ff60001b83146119355761192e83611e93565b90506119c2565b81805461194190612cc3565b80601f016020809104026020016040519081016040528092919081815260200182805461196d90612cc3565b80156119ba5780601f1061198f576101008083540402835291602001916119ba565b820191906000526020600020905b81548152906001019060200180831161199d57829003601f168201915b505050505090505b92915050565b8173ffffffffffffffffffffffffffffffffffffffff168373ffffffffffffffffffffffffffffffffffffffff1603611a36576040517f08c379a0000000000000000000000000000000000000000000000000000000008152600401611a2d90613551565b60405180910390fd5b80600560008573ffffffffffffffffffffffffffffffffffffffff1673ffffffffffffffffffffffffffffffffffffffff16815260200190815260200160002060008473ffffffffffffffffffffffffffffffffffffffff1673ffffffffffffffffffffffffffffffffffffffff16815260200190815260200160002060006101000a81548160ff0219169083151502179055508173ffffffffffffffffffffffffffffffffffffffff168373ffffffffffffffffffffffffffffffffffffffff167f17307eab39ab6107e8899845ad3d59bd9653f200f220920489ca2b5937696c3183604051611b279190612578565b60405180910390a3505050565b611b3f84848461125a565b611b4b84848484611f07565b611b8a576040517f08c379a0000000000000000000000000000000000000000000000000000000008152600401611b81906135e3565b60405180910390fd5b50505050565b606060405180602001604052806000815250905090565b606060006001611bb68461208e565b01905060008167ffffffffffffffff811115611bd557611bd461281e565b5b6040519080825280601f01601f191660200182016040528015611c075781602001600182028036833780820191505090505b509050600082602001820190505b600115611c6a578080600190039150507f3031323334353637383961626364656600000000000000000000000000000000600a86061a8153600a8581611c5e57611c5d613603565b5b04945060008503611c15575b819350505050919050565b60008073ffffffffffffffffffffffffffffffffffffffff16611c9783611815565b73ffffffffffffffffffffffffffffffffffffffff1614159050919050565b50505050565b50505050565b6000611cd5611ccf6121e1565b83612298565b9050919050565b6000806041835103611d1d5760008060006020860151925060408601519150606086015160001a9050611d11878285856122d9565b94509450505050611d26565b60006002915091505b9250929050565b60006004811115611d4157611d40613632565b5b816004811115611d5457611d53613632565b5b0315611e905760016004811115611d6e57611d6d613632565b5b816004811115611d8157611d80613632565b5b03611dc1576040517f08c379a0000000000000000000000000000000000000000000000000000000008152600401611db8906136ad565b60405180910390fd5b60026004811115611dd557611dd4613632565b5b816004811115611de857611de7613632565b5b03611e28576040517f08c379a0000000000000000000000000000000000000000000000000000000008152600401611e1f90613719565b60405180910390fd5b60036004811115611e3c57611e3b613632565b5b816004811115611e4f57611e4e613632565b5b03611e8f576040517f08c379a0000000000000000000000000000000000000000000000000000000008152600401611e86906137ab565b60405180910390fd5b5b50565b60606000611ea0836123bb565b90506000602067ffffffffffffffff811115611ebf57611ebe61281e565b5b6040519080825280601f01601f191660200182016040528015611ef15781602001600182028036833780820191505090505b5090508181528360208201528092505050919050565b6000611f288473ffffffffffffffffffffffffffffffffffffffff1661240b565b15612081578373ffffffffffffffffffffffffffffffffffffffff1663150b7a02611f51611086565b8786866040518563ffffffff1660e01b8152600401611f739493929190613820565b6020604051808303816000875af1925050508015611faf57506040513d601f19601f82011682018060405250810190611fac9190613881565b60015b612031573d8060008114611fdf576040519150601f19603f3d011682016040523d82523d6000602084013e611fe4565b606091505b506000815103612029576040517f08c379a0000000000000000000000000000000000000000000000000000000008152600401612020906135e3565b60405180910390fd5b805181602001fd5b63150b7a0260e01b7bffffffffffffffffffffffffffffffffffffffffffffffffffffffff1916817bffffffffffffffffffffffffffffffffffffffffffffffffffffffff191614915050612086565b600190505b949350505050565b600080600090507a184f03e93ff9f4daa797ed6e38ed64bf6a1f01000000000000000083106120ec577a184f03e93ff9f4daa797ed6e38ed64bf6a1f01000000000000000083816120e2576120e1613603565b5b0492506040810190505b6d04ee2d6d415b85acef81000000008310612129576d04ee2d6d415b85acef8100000000838161211f5761211e613603565b5b0492506020810190505b662386f26fc10000831061215857662386f26fc10000838161214e5761214d613603565b5b0492506010810190505b6305f5e1008310612181576305f5e100838161217757612176613603565b5b0492506008810190505b61271083106121a657612710838161219c5761219b613603565b5b0492506004810190505b606483106121c957606483816121bf576121be613603565b5b0492506002810190505b600a83106121d8576001810190505b80915050919050565b60007f000000000000000000000000000000000000000000000000000000000000000073ffffffffffffffffffffffffffffffffffffffff163073ffffffffffffffffffffffffffffffffffffffff1614801561225d57507f000000000000000000000000000000000000000000000000000000000000000046145b1561228a577f00000000000000000000000000000000000000000000000000000000000000009050612295565b61229261242e565b90505b90565b60006040517f190100000000000000000000000000000000000000000000000000000000000081528360028201528260228201526042812091505092915050565b6000807f7fffffffffffffffffffffffffffffff5d576e7357a4501ddfe92f46681b20a08360001c11156123145760006003915091506123b2565b60006001878787876040516000815260200160405260405161233994939291906138ca565b6020604051602081039080840390855afa15801561235b573d6000803e3d6000fd5b505050602060405103519050600073ffffffffffffffffffffffffffffffffffffffff168173ffffffffffffffffffffffffffffffffffffffff16036123a9576000600192509250506123b2565b80600092509250505b94509492505050565b60008060ff8360001c169050601f811115612402576040517fb3512b0c00000000000000000000000000000000000000000000000000000000815260040160405180910390fd5b80915050919050565b6000808273ffffffffffffffffffffffffffffffffffffffff163b119050919050565b60007f8b73c3c69bb8fe3d512ecc4cf759cc79239f7b179b0ffacaa9a75d522b39400f7f00000000000000000000000000000000000000000000000000000000000000007f000000000000000000000000000000000000000000000000000000000000000046306040516020016124a995949392919061390f565b60405160208183030381529060405280519060200120905090565b6000604051905090565b600080fd5b600080fd5b60007fffffffff0000000000000000000000000000000000000000000000000000000082169050919050565b61250d816124d8565b811461251857600080fd5b50565b60008135905061252a81612504565b92915050565b600060208284031215612546576125456124ce565b5b60006125548482850161251b565b91505092915050565b60008115159050919050565b6125728161255d565b82525050565b600060208201905061258d6000830184612569565b92915050565b600081519050919050565b600082825260208201905092915050565b60005b838110156125cd5780820151818401526020810190506125b2565b60008484015250505050565b6000601f19601f8301169050919050565b60006125f582612593565b6125ff818561259e565b935061260f8185602086016125af565b612618816125d9565b840191505092915050565b6000602082019050818103600083015261263d81846125ea565b905092915050565b6000819050919050565b61265881612645565b811461266357600080fd5b50565b6000813590506126758161264f565b92915050565b600060208284031215612691576126906124ce565b5b600061269f84828501612666565b91505092915050565b600073ffffffffffffffffffffffffffffffffffffffff82169050919050565b60006126d3826126a8565b9050919050565b6126e3816126c8565b82525050565b60006020820190506126fe60008301846126da565b92915050565b61270d816126c8565b811461271857600080fd5b50565b60008135905061272a81612704565b92915050565b60008060408385031215612747576127466124ce565b5b60006127558582860161271b565b925050602061276685828601612666565b9150509250929050565b600060208284031215612786576127856124ce565b5b60006127948482850161271b565b91505092915050565b6000806000606084860312156127b6576127b56124ce565b5b60006127c48682870161271b565b93505060206127d58682870161271b565b92505060406127e686828701612666565b9150509250925092565b600080fd5b60006080828403121561280b5761280a6127f0565b5b81905092915050565b600080fd5b600080fd5b7f4e487b7100000000000000000000000000000000000000000000000000000000600052604160045260246000fd5b612856826125d9565b810181811067ffffffffffffffff821117156128755761287461281e565b5b80604052505050565b60006128886124c4565b9050612894828261284d565b919050565b600067ffffffffffffffff8211156128b4576128b361281e565b5b6128bd826125d9565b9050602081019050919050565b82818337600083830152505050565b60006128ec6128e784612899565b61287e565b90508281526020810184848401111561290857612907612819565b5b6129138482856128ca565b509392505050565b600082601f8301126129305761292f612814565b5b81356129408482602086016128d9565b91505092915050565b60008060a083850312156129605761295f6124ce565b5b600061296e858286016127f5565b925050608083013567ffffffffffffffff81111561298f5761298e6124d3565b5b61299b8582860161291b565b9150509250929050565b6129ae81612645565b82525050565b60006020820190506129c960008301846129a5565b92915050565b60007fff0000000000000000000000000000000000000000000000000000000000000082169050919050565b612a04816129cf565b82525050565b6000819050919050565b612a1d81612a0a565b82525050565b600081519050919050565b600082825260208201905092915050565b6000819050602082019050919050565b612a5881612645565b82525050565b6000612a6a8383612a4f565b60208301905092915050565b6000602082019050919050565b6000612a8e82612a23565b612a988185612a2e565b9350612aa383612a3f565b8060005b83811015612ad4578151612abb8882612a5e565b9750612ac683612a76565b925050600181019050612aa7565b5085935050505092915050565b600060e082019050612af6600083018a6129fb565b8181036020830152612b0881896125ea565b90508181036040830152612b1c81886125ea565b9050612b2b60608301876129a5565b612b3860808301866126da565b612b4560a0830185612a14565b81810360c0830152612b578184612a83565b905098975050505050505050565b612b6e8161255d565b8114612b7957600080fd5b50565b600081359050612b8b81612b65565b92915050565b60008060408385031215612ba857612ba76124ce565b5b6000612bb68582860161271b565b9250506020612bc785828601612b7c565b9150509250929050565b60008060008060808587031215612beb57612bea6124ce565b5b6000612bf98782880161271b565b9450506020612c0a8782880161271b565b9350506040612c1b87828801612666565b925050606085013567ffffffffffffffff811115612c3c57612c3b6124d3565b5b612c488782880161291b565b91505092959194509250565b60008060408385031215612c6b57612c6a6124ce565b5b6000612c798582860161271b565b9250506020612c8a8582860161271b565b9150509250929050565b7f4e487b7100000000000000000000000000000000000000000000000000000000600052602260045260246000fd5b60006002820490506001821680612cdb57607f821691505b602082108103612cee57612ced612c94565b5b50919050565b7f4552433732313a20617070726f76616c20746f2063757272656e74206f776e6560008201527f7200000000000000000000000000000000000000000000000000000000000000602082015250565b6000612d5060218361259e565b9150612d5b82612cf4565b604082019050919050565b60006020820190508181036000830152612d7f81612d43565b9050919050565b7f4552433732313a20617070726f76652063616c6c6572206973206e6f7420746f60008201527f6b656e206f776e6572206f7220617070726f76656420666f7220616c6c000000602082015250565b6000612de2603d8361259e565b9150612ded82612d86565b604082019050919050565b60006020820190508181036000830152612e1181612dd5565b9050919050565b7f4552433732313a2063616c6c6572206973206e6f7420746f6b656e206f776e6560008201527f72206f7220617070726f76656400000000000000000000000000000000000000602082015250565b6000612e74602d8361259e565b9150612e7f82612e18565b604082019050919050565b60006020820190508181036000830152612ea381612e67565b9050919050565b7f5265717565737420657870697265640000000000000000000000000000000000600082015250565b6000612ee0600f8361259e565b9150612eeb82612eaa565b602082019050919050565b60006020820190508181036000830152612f0f81612ed3565b9050919050565b7f4e6f6e636520616c726561647920757365640000000000000000000000000000600082015250565b6000612f4c60128361259e565b9150612f5782612f16565b602082019050919050565b60006020820190508181036000830152612f7b81612f3f565b9050919050565b7f496e76616c6964207369676e6572000000000000000000000000000000000000600082015250565b6000612fb8600e8361259e565b9150612fc382612f82565b602082019050919050565b60006020820190508181036000830152612fe781612fab565b9050919050565b7f4e6f7420617574686f72697a656420746f206d696e7400000000000000000000600082015250565b600061302460168361259e565b915061302f82612fee565b602082019050919050565b6000602082019050818103600083015261305381613017565b9050919050565b7f4552433732313a20696e76616c696420746f6b656e2049440000000000000000600082015250565b600061309060188361259e565b915061309b8261305a565b602082019050919050565b600060208201905081810360008301526130bf81613083565b9050919050565b7f4552433732313a2061646472657373207a65726f206973206e6f74206120766160008201527f6c6964206f776e65720000000000000000000000000000000000000000000000602082015250565b600061312260298361259e565b915061312d826130c6565b604082019050919050565b6000602082019050818103600083015261315181613115565b9050919050565b600081905092915050565b600061316e82612593565b6131788185613158565b93506131888185602086016125af565b80840191505092915050565b60006131a08285613163565b91506131ac8284613163565b91508190509392505050565b7f4f776e61626c653a206e6577206f776e657220697320746865207a65726f206160008201527f6464726573730000000000000000000000000000000000000000000000000000602082015250565b600061321460268361259e565b915061321f826131b8565b604082019050919050565b6000602082019050818103600083015261324381613207565b9050919050565b7f4f776e61626c653a2063616c6c6572206973206e6f7420746865206f776e6572600082015250565b600061328060208361259e565b915061328b8261324a565b602082019050919050565b600060208201905081810360008301526132af81613273565b9050919050565b7f4552433732313a207472616e736665722066726f6d20696e636f72726563742060008201527f6f776e6572000000000000000000000000000000000000000000000000000000602082015250565b600061331260258361259e565b915061331d826132b6565b604082019050919050565b6000602082019050818103600083015261334181613305565b9050919050565b7f4552433732313a207472616e7366657220746f20746865207a65726f2061646460008201527f7265737300000000000000000000000000000000000000000000000000000000602082015250565b60006133a460248361259e565b91506133af82613348565b604082019050919050565b600060208201905081810360008301526133d381613397565b9050919050565b600060a0820190506133ef6000830188612a14565b6133fc60208301876126da565b61340960408301866129a5565b61341660608301856129a5565b61342360808301846129a5565b9695505050505050565b7f4552433732313a206d696e7420746f20746865207a65726f2061646472657373600082015250565b600061346360208361259e565b915061346e8261342d565b602082019050919050565b6000602082019050818103600083015261349281613456565b9050919050565b7f4552433732313a20746f6b656e20616c7265616479206d696e74656400000000600082015250565b60006134cf601c8361259e565b91506134da82613499565b602082019050919050565b600060208201905081810360008301526134fe816134c2565b9050919050565b7f4552433732313a20617070726f766520746f2063616c6c657200000000000000600082015250565b600061353b60198361259e565b915061354682613505565b602082019050919050565b6000602082019050818103600083015261356a8161352e565b9050919050565b7f4552433732313a207472616e7366657220746f206e6f6e20455243373231526560008201527f63656976657220696d706c656d656e7465720000000000000000000000000000602082015250565b60006135cd60328361259e565b91506135d882613571565b604082019050919050565b600060208201905081810360008301526135fc816135c0565b9050919050565b7f4e487b7100000000000000000000000000000000000000000000000000000000600052601260045260246000fd5b7f4e487b7100000000000000000000000000000000000000000000000000000000600052602160045260246000fd5b7f45434453413a20696e76616c6964207369676e61747572650000000000000000600082015250565b600061369760188361259e565b91506136a282613661565b602082019050919050565b600060208201905081810360008301526136c68161368a565b9050919050565b7f45434453413a20696e76616c6964207369676e6174757265206c656e67746800600082015250565b6000613703601f8361259e565b915061370e826136cd565b602082019050919050565b60006020820190508181036000830152613732816136f6565b9050919050565b7f45434453413a20696e76616c6964207369676e6174757265202773272076616c60008201527f7565000000000000000000000000000000000000000000000000000000000000602082015250565b600061379560228361259e565b91506137a082613739565b604082019050919050565b600060208201905081810360008301526137c481613788565b9050919050565b600081519050919050565b600082825260208201905092915050565b60006137f2826137cb565b6137fc81856137d6565b935061380c8185602086016125af565b613815816125d9565b840191505092915050565b600060808201905061383560008301876126da565b61384260208301866126da565b61384f60408301856129a5565b818103606083015261386181846137e7565b905095945050505050565b60008151905061387b81612504565b92915050565b600060208284031215613897576138966124ce565b5b60006138a58482850161386c565b91505092915050565b600060ff82169050919050565b6138c4816138ae565b82525050565b60006080820190506138df6000830187612a14565b6138ec60208301866138bb565b6138f96040830185612a14565b6139066060830184612a14565b95945050505050565b600060a0820190506139246000830188612a14565b6139316020830187612a14565b61393e6040830186612a14565b61394b60608301856129a5565b61395860808301846126da565b969550505050505056fea26469706673582212201f9da8b07e8fc4a36021347197220738f2285b9f9c2bd0a8ffab17b6a32fa5b864736f6c63430008140033",
  "linkReferences": {},
  "deployedLinkReferences": {}
}