{
  "_format": "hh-sol-artifact-1",
  "contractName": "SignatureExample",
  "sourceName": "contracts/SignatureExample.sol",
  "abi": [
    {
      "inputs": [],
      "stateMutability": "nonpayable",
      "type": "constructor"
    },
    {
      "inputs": [],
      "name": "InvalidShortString",
      "type": "error"
    },
    {
      "inputs": [
        {
          "internalType": "string",
          "name": "str",
          "type": "string"
        }
      ],
      "name": "StringTooLong",
      "type": "error"
    },
    {
      "anonymous": false,
      "inputs": [],
      "name": "EIP712DomainChanged",
      "type": "event"
    },
    {
      "inputs": [],
      "name": "MAIL_TYPEHASH",
      "outputs": [
        {
          "internalType": "bytes32",
          "name": "",
          "type": "bytes32"
        }
      ],
      "stateMutability": "view",
      "type": "function"
    },
    {
      "inputs": [],
      "name": "eip712Domain",
      "outputs": [
        {
          "internalType": "bytes1",
          "name": "fields",
          "type": "bytes1"
        },
        {
          "internalType": "string",
          "name": "name",
          "type": "string"
        },
        {
          "internalType": "string",
          "name": "version",
          "type": "string"
        },
        {
          "internalType": "uint256",
          "name": "chainId",
          "type": "uint256"
        },
        {
          "internalType": "address",
          "name": "verifyingContract",
          "type": "address"
        },
        {
          "internalType": "bytes32",
          "name": "salt",
          "type": "bytes32"
        },
        {
          "internalType": "uint256[]",
          "name": "extensions",
          "type": "uint256[]"
        }
      ],
      "stateMutability": "view",
      "type": "function"
    },
    {
      "inputs": [
        {
          "internalType": "address",
          "name": "to",
          "type": "address"
        },
        {
          "internalType": "string",
          "name": "contents",
          "type": "string"
        },
        {
          "internalType": "bytes",
          "name": "signature",
          "type": "bytes"
        }
      ],
      "name": "verify",
      "outputs": [
        {
          "internalType": "bool",
          "name": "",
          "type": "bool"
        }
      ],
      "stateMutability": "view",
      "type": "function"
    }
  ],
  "bytecode": "0x6101606040523480156200001257600080fd5b506040518060400160405280601081526020017f5369676e61747572654578616d706c65000000000000000000000000000000008152506040518060400160405280600381526020017f312e300000000000000000000000000000000000000000000000000000000000815250620000956000836200013560201b90919060201c565b6101208181525050620000b36001826200013560201b90919060201c565b6101408181525050818051906020012060e08181525050808051906020012061010081815250504660a08181525050620000f26200018d60201b60201c565b608081815250503073ffffffffffffffffffffffffffffffffffffffff1660c08173ffffffffffffffffffffffffffffffffffffffff16815250505050620007e5565b60006020835110156200015b576200015383620001ea60201b60201c565b905062000187565b826200016d836200025760201b60201c565b60000190816200017e9190620004db565b5060ff60001b90505b92915050565b60007f8b73c3c69bb8fe3d512ecc4cf759cc79239f7b179b0ffacaa9a75d522b39400f60e051610100514630604051602001620001cf95949392919062000633565b60405160208183030381529060405280519060200120905090565b600080829050601f815111156200023a57826040517f305a27a90000000000000000000000000000000000000000000000000000000081526004016200023191906200071f565b60405180910390fd5b805181620002489062000775565b60001c1760001b915050919050565b6000819050919050565b600081519050919050565b7f4e487b7100000000000000000000000000000000000000000000000000000000600052604160045260246000fd5b7f4e487b7100000000000000000000000000000000000000000000000000000000600052602260045260246000fd5b60006002820490506001821680620002e357607f821691505b602082108103620002f957620002f86200029b565b5b50919050565b60008190508160005260206000209050919050565b60006020601f8301049050919050565b600082821b905092915050565b600060088302620003637fffffffffffffffffffffffffffffffffffffffffffffffffffffffffffffffff8262000324565b6200036f868362000324565b95508019841693508086168417925050509392505050565b6000819050919050565b6000819050919050565b6000620003bc620003b6620003b08462000387565b62000391565b62000387565b9050919050565b6000819050919050565b620003d8836200039b565b620003f0620003e782620003c3565b84845462000331565b825550505050565b600090565b62000407620003f8565b62000414818484620003cd565b505050565b5b818110156200043c5762000430600082620003fd565b6001810190506200041a565b5050565b601f8211156200048b576200045581620002ff565b620004608462000314565b8101602085101562000470578190505b620004886200047f8562000314565b83018262000419565b50505b505050565b600082821c905092915050565b6000620004b06000198460080262000490565b1980831691505092915050565b6000620004cb83836200049d565b9150826002028217905092915050565b620004e68262000261565b67ffffffffffffffff8111156200050257620005016200026c565b5b6200050e8254620002ca565b6200051b82828562000440565b600060209050601f8311600181146200055357600084156200053e578287015190505b6200054a8582620004bd565b865550620005ba565b601f1984166200056386620002ff565b60005b828110156200058d5784890151825560018201915060208501945060208101905062000566565b86831015620005ad5784890151620005a9601f8916826200049d565b8355505b6001600288020188555050505b505050505050565b6000819050919050565b620005d781620005c2565b82525050565b620005e88162000387565b82525050565b600073ffffffffffffffffffffffffffffffffffffffff82169050919050565b60006200061b82620005ee565b9050919050565b6200062d816200060e565b82525050565b600060a0820190506200064a6000830188620005cc565b620006596020830187620005cc565b620006686040830186620005cc565b620006776060830185620005dd565b62000686608083018462000622565b9695505050505050565b600082825260208201905092915050565b60005b83811015620006c1578082015181840152602081019050620006a4565b60008484015250505050565b6000601f19601f8301169050919050565b6000620006eb8262000261565b620006f7818562000690565b935062000709818560208601620006a1565b6200071481620006cd565b840191505092915050565b600060208201905081810360008301526200073b8184620006de565b905092915050565b600081519050919050565b6000819050602082019050919050565b60006200076c8251620005c2565b80915050919050565b6000620007828262000743565b826200078e846200074e565b90506200079b816200075e565b92506020821015620007de57620007d97fffffffffffffffffffffffffffffffffffffffffffffffffffffffffffffffff8360200360080262000324565b831692505b5050919050565b60805160a05160c05160e0516101005161012051610140516110ed6200084060003960006101a601526000610172015260006106df015260006106be0152600061037a015260006103d0015260006103f901526110ed6000f3fe608060405234801561001057600080fd5b50600436106100415760003560e01c80632dd34f0f1461004657806384b0196e14610076578063f9953bb71461009a575b600080fd5b610060600480360381019061005b9190610aba565b6100b8565b60405161006d9190610b60565b60405180910390f35b61007e61015f565b6040516100919796959493929190610d34565b60405180910390f35b6100a2610261565b6040516100af9190610db8565b60405180910390f35b6000806101157f847fc9da8ec3c72cae85ca691245eaeb0a4a1e74f77c3a919c43afda231d39ba8686805190602001206040516020016100fa93929190610dd3565b60405160208183030381529060405280519060200120610285565b90506000610123828561029f565b90503373ffffffffffffffffffffffffffffffffffffffff168173ffffffffffffffffffffffffffffffffffffffff1614925050509392505050565b60006060806000806000606061019f60007f00000000000000000000000000000000000000000000000000000000000000006102c690919063ffffffff16565b6101d360017f00000000000000000000000000000000000000000000000000000000000000006102c690919063ffffffff16565b46306000801b600067ffffffffffffffff8111156101f4576101f36108ee565b5b6040519080825280602002602001820160405280156102225781602001602082028036833780820191505090505b507f0f00000000000000000000000000000000000000000000000000000000000000959493929190965096509650965096509650965090919293949596565b7f847fc9da8ec3c72cae85ca691245eaeb0a4a1e74f77c3a919c43afda231d39ba81565b6000610298610292610376565b8361042d565b9050919050565b60008060006102ae858561046e565b915091506102bb816104bf565b819250505092915050565b606060ff60001b83146102e3576102dc83610625565b9050610370565b8180546102ef90610e39565b80601f016020809104026020016040519081016040528092919081815260200182805461031b90610e39565b80156103685780601f1061033d57610100808354040283529160200191610368565b820191906000526020600020905b81548152906001019060200180831161034b57829003601f168201915b505050505090505b92915050565b60007f000000000000000000000000000000000000000000000000000000000000000073ffffffffffffffffffffffffffffffffffffffff163073ffffffffffffffffffffffffffffffffffffffff161480156103f257507f000000000000000000000000000000000000000000000000000000000000000046145b1561041f577f0000000000000000000000000000000000000000000000000000000000000000905061042a565b610427610699565b90505b90565b60006040517f190100000000000000000000000000000000000000000000000000000000000081528360028201528260228201526042812091505092915050565b60008060418351036104af5760008060006020860151925060408601519150606086015160001a90506104a38782858561072f565b945094505050506104b8565b60006002915091505b9250929050565b600060048111156104d3576104d2610e6a565b5b8160048111156104e6576104e5610e6a565b5b03156106225760016004811115610500576104ff610e6a565b5b81600481111561051357610512610e6a565b5b03610553576040517f08c379a000000000000000000000000000000000000000000000000000000000815260040161054a90610ee5565b60405180910390fd5b6002600481111561056757610566610e6a565b5b81600481111561057a57610579610e6a565b5b036105ba576040517f08c379a00000000000000000000000000000000000000000000000000000000081526004016105b190610f51565b60405180910390fd5b600360048111156105ce576105cd610e6a565b5b8160048111156105e1576105e0610e6a565b5b03610621576040517f08c379a000000000000000000000000000000000000000000000000000000000815260040161061890610fe3565b60405180910390fd5b5b50565b6060600061063283610811565b90506000602067ffffffffffffffff811115610651576106506108ee565b5b6040519080825280601f01601f1916602001820160405280156106835781602001600182028036833780820191505090505b5090508181528360208201528092505050919050565b60007f8b73c3c69bb8fe3d512ecc4cf759cc79239f7b179b0ffacaa9a75d522b39400f7f00000000000000000000000000000000000000000000000000000000000000007f00000000000000000000000000000000000000000000000000000000000000004630604051602001610714959493929190611003565b60405160208183030381529060405280519060200120905090565b6000807f7fffffffffffffffffffffffffffffff5d576e7357a4501ddfe92f46681b20a08360001c111561076a576000600391509150610808565b60006001878787876040516000815260200160405260405161078f9493929190611072565b6020604051602081039080840390855afa1580156107b1573d6000803e3d6000fd5b505050602060405103519050600073ffffffffffffffffffffffffffffffffffffffff168173ffffffffffffffffffffffffffffffffffffffff16036107ff57600060019250925050610808565b80600092509250505b94509492505050565b60008060ff8360001c169050601f811115610858576040517fb3512b0c00000000000000000000000000000000000000000000000000000000815260040160405180910390fd5b80915050919050565b6000604051905090565b600080fd5b600080fd5b600073ffffffffffffffffffffffffffffffffffffffff82169050919050565b60006108a082610875565b9050919050565b6108b081610895565b81146108bb57600080fd5b50565b6000813590506108cd816108a7565b92915050565b600080fd5b600080fd5b6000601f19601f8301169050919050565b7f4e487b7100000000000000000000000000000000000000000000000000000000600052604160045260246000fd5b610926826108dd565b810181811067ffffffffffffffff82111715610945576109446108ee565b5b80604052505050565b6000610958610861565b9050610964828261091d565b919050565b600067ffffffffffffffff821115610984576109836108ee565b5b61098d826108dd565b9050602081019050919050565b82818337600083830152505050565b60006109bc6109b784610969565b61094e565b9050828152602081018484840111156109d8576109d76108d8565b5b6109e384828561099a565b509392505050565b600082601f830112610a00576109ff6108d3565b5b8135610a108482602086016109a9565b91505092915050565b600067ffffffffffffffff821115610a3457610a336108ee565b5b610a3d826108dd565b9050602081019050919050565b6000610a5d610a5884610a19565b61094e565b905082815260208101848484011115610a7957610a786108d8565b5b610a8484828561099a565b509392505050565b600082601f830112610aa157610aa06108d3565b5b8135610ab1848260208601610a4a565b91505092915050565b600080600060608486031215610ad357610ad261086b565b5b6000610ae1868287016108be565b935050602084013567ffffffffffffffff811115610b0257610b01610870565b5b610b0e868287016109eb565b925050604084013567ffffffffffffffff811115610b2f57610b2e610870565b5b610b3b86828701610a8c565b9150509250925092565b60008115159050919050565b610b5a81610b45565b82525050565b6000602082019050610b756000830184610b51565b92915050565b60007fff0000000000000000000000000000000000000000000000000000000000000082169050919050565b610bb081610b7b565b82525050565b600081519050919050565b600082825260208201905092915050565b60005b83811015610bf0578082015181840152602081019050610bd5565b60008484015250505050565b6000610c0782610bb6565b610c118185610bc1565b9350610c21818560208601610bd2565b610c2a816108dd565b840191505092915050565b6000819050919050565b610c4881610c35565b82525050565b610c5781610895565b82525050565b6000819050919050565b610c7081610c5d565b82525050565b600081519050919050565b600082825260208201905092915050565b6000819050602082019050919050565b610cab81610c35565b82525050565b6000610cbd8383610ca2565b60208301905092915050565b6000602082019050919050565b6000610ce182610c76565b610ceb8185610c81565b9350610cf683610c92565b8060005b83811015610d27578151610d0e8882610cb1565b9750610d1983610cc9565b925050600181019050610cfa565b5085935050505092915050565b600060e082019050610d49600083018a610ba7565b8181036020830152610d5b8189610bfc565b90508181036040830152610d6f8188610bfc565b9050610d7e6060830187610c3f565b610d8b6080830186610c4e565b610d9860a0830185610c67565b81810360c0830152610daa8184610cd6565b905098975050505050505050565b6000602082019050610dcd6000830184610c67565b92915050565b6000606082019050610de86000830186610c67565b610df56020830185610c4e565b610e026040830184610c67565b949350505050565b7f4e487b7100000000000000000000000000000000000000000000000000000000600052602260045260246000fd5b60006002820490506001821680610e5157607f821691505b602082108103610e6457610e63610e0a565b5b50919050565b7f4e487b7100000000000000000000000000000000000000000000000000000000600052602160045260246000fd5b7f45434453413a20696e76616c6964207369676e61747572650000000000000000600082015250565b6000610ecf601883610bc1565b9150610eda82610e99565b602082019050919050565b60006020820190508181036000830152610efe81610ec2565b9050919050565b7f45434453413a20696e76616c6964207369676e6174757265206c656e67746800600082015250565b6000610f3b601f83610bc1565b9150610f4682610f05565b602082019050919050565b60006020820190508181036000830152610f6a81610f2e565b9050919050565b7f45434453413a20696e76616c6964207369676e6174757265202773272076616c60008201527f7565000000000000000000000000000000000000000000000000000000000000602082015250565b6000610fcd602283610bc1565b9150610fd882610f71565b604082019050919050565b60006020820190508181036000830152610ffc81610fc0565b9050919050565b600060a0820190506110186000830188610c67565b6110256020830187610c67565b6110326040830186610c67565b61103f6060830185610c3f565b61104c6080830184610c4e565b9695505050505050565b600060ff82169050919050565b61106c81611056565b82525050565b60006080820190506110876000830187610c67565b6110946020830186611063565b6110a16040830185610c67565b6110ae6060830184610c67565b9594505050505056fea26469706673582212208dab13c8f0b7604cd33f0d456d52cf9b0adeef9f8e58476abf96b7cb68a3fb5c64736f6c63430008140033",
  "linkReferences": {},
  "deployedLinkReferences": {}
}